:100000000C9434000C943E000C943E000C943E0082
:100010000C943E000C943E000C943E000C943E0068
:100020000C943E000C943E000C943E000C943E0058
:100030000C943E000C943E000C943E000C943E0048
:100040000C943E000C943E000C943E000C943E0038
:100050000C943E000C943E000C943E000C943E0028
:100060000C943E000C943E0011241FBECFEFD8E04C
:10007000DEBFCDBF0E9484000C94D3000C9400001E
:100080001092C50087E68093C40088E18093C10088
:1000900086E08093C20008959091C00095FFFCCF48
:1000A0008093C60008958091C00087FFFCCF8091A7
:1000B000C60008950F931F93CF93DF9300D000D015
:1000C00000D00F92CDB7DEB74AE050E0BE016F5FBF
:1000D0007F4F0E9493008E010F5F1F4FF8018191A7
:1000E0008F0181110EC08AE00E944C0027960FB646
:1000F000F894DEBF0FBECDBFDF91CF911F910F915E
:1001000008950E944C00EACF0E9440000E945300D4
:10011000C82F0E945300C0588058C802C001112443
:100120000E945A00F3CF4532510520F4423010F0BE
:100130000C949E00FB011082CB010895BB274A302E
:1001400031F4992322F4BDE2909581959F4F0C9450
:10015000AA00BB27FB015527AA27880F991FAA1FB2
:10016000A41710F0A41B83955051B9F7A05DAA33D2
:1001700008F0A95DA193009779F7B111B19311929D
:10018000CB010C94C300DC01FC01672F7191772334
:10019000E1F7329704C07C916D9370836291AE1742
:0A01A000BF07C8F30895F894FFCFDD
:00000001FF
