:100000000C9434000C943E000C943E000C943E0082
:100010000C943E000C943E000C943E000C943E0068
:100020000C943E000C943E000C943E000C943E0058
:100030000C943E000C943E000C943E000C943E0048
:100040000C943E000C943E000C943E000C943E0038
:100050000C943E000C943E000C943E000C943E0028
:100060000C943E000C943E0011241FBECFEFD8E04C
:10007000DEBFCDBF0E9407010C94EB010C94000081
:100080001092C50087E68093C40088E18093C10088
:1000900086E08093C20008959091C00095FFFCCF48
:1000A0008093C60008958091C00087FFFCCF8091A7
:1000B000C60008950F931F93CF93DF9300D000D015
:1000C00000D00F92CDB7DEB74AE050E0BE016F5FBF
:1000D0007F4F0E94AB018E010F5F1F4FF80181918E
:1000E0008F0181110EC08AE00E944C0027960FB646
:1000F000F894DEBF0FBECDBFDF91CF911F910F915E
:1001000008950E944C00EACF2F923F924F925F9247
:100110006F927F928F929F92AF92BF92CF92DF9217
:10012000EF920F931F93CF93DF93CDB7DEB72C974A
:100130000FB6F894DEBF0FBECDBF89839A836B01E3
:100140004B835C83522F40E06E2C712C451708F0D6
:1001500046C0409FC00111249E838D834E9DF001B7
:100160001124EE0FFF1FAB81BC81EA0FFB1F1C8621
:100170001B8621C0D4018D914D01D5012C91022EF9
:10018000000C330BA82F880FBB0B0E948D016F83CF
:10019000788789879A87260E371E481E591E1F5F4B
:1001A000A60CB71C1013E6CF219231928B859C854B
:1001B00001969C878B879B859E1578F489809A8011
:1001C000AD81BE818A0E9B1EAB84BC84AC0CBD1C71
:1001D00010E0212C312C2101E5CF4F5FB7CF2C96B9
:1001E0000FB6F894DEBF0FBECDBFDF91CF911F9148
:1001F0000F91EF90DF90CF90BF90AF909F908F9036
:100200007F906F905F904F903F902F90089500D017
:1002100000D0CDB7DEB70E9440002DB73EB73A837D
:1002200029830E945300182F0E945300082F0E9418
:100230005300E82E109FC00111244DB75EB7481B34
:10024000590B0FB6F8945EBF0FBE4DBFEDB7FEB7AA
:1002500031966F010E9D200111242DB73EB7241950
:1002600035090FB6F8943EBF0FBE2DBF4DB75EB730
:100270004F5F5F4F5A011E9D300111249301220FE1
:10028000331FEDB7FEB7E21BF30B0FB6F894FEBFBA
:100290000FBEEDBF2DB73EB72F5F3F4F190146018F
:1002A000A601480F591F5C834B832B813C8182162A
:1002B0009306C9F445014A0C5B1C84149504D1F4DF
:1002C000212FA101B501C6010E94840010E000E0C9
:1002D00060167106B1F429813A810FB6F8943EBFD9
:1002E0000FBE2DBF9ACF0E9453008058F401819316
:1002F0004F01DBCF0E9453008058F40181934F01DE
:10030000DCCFF801EE0FFF1FE20DF31D808191811C
:100310000E945A000F5F1F4FDBCF0E9495013323CD
:1003200012F48A1B9B0B0C94A601A29FB001B39FF1
:10033000C001A39F700D811D1124911DB29F700DEE
:10034000811D1124911D08950E949501B7FF089504
:10035000821B930B08954532510520F4423010F072
:100360000C94B601FB011082CB010895BB274A30E3
:1003700031F4992322F4BDE2909581959F4F0C941E
:10038000C201BB27FB015527AA27880F991FAA1F67
:10039000A41710F0A41B83955051B9F7A05DAA33A0
:1003A00008F0A95DA193009779F7B111B19311926B
:1003B000CB010C94DB01DC01FC01672F71917723E9
:1003C000E1F7329704C07C916D9370836291AE1710
:0A03D000BF07C8F30895F894FFCFAB
:00000001FF
